:100000000C943E000C94D6020C945B000C945B00A4
:100010000C945B000C945B000C945B000C945B00F4
:100020000C945B000C945B000C945B000C945B00E4
:100030000C945B000C945B000C945B000C945B00D4
:100040000C945B000C945B000C945B000C945B00C4
:100050000C945B000C945B000C945B000C945B00B4
:100060000C945B000C945B000C945B000C945B00A4
:100070000C945B000C945B000C945B0011241FBE7D
:10008000CFEFD8E0DEBFCDBF11E0A0E0B1E0EAEFF6
:10009000F7E102C005900D92A035B107D9F721E034
:1000A000A0E5B1E001C01D92A135B207E1F70E94C1
:1000B000B7080C94FB0B0C94000010927C0086E8AF
:1000C00080937A00089510927A00089580917C00C0
:1000D000807E80937C0080917C006770682B6093A9
:1000E0007C0080917A00806480937A0080917A000D
:1000F00084FFFCCF80917A00806180937A00209108
:10010000780090917900892F90E0982F8827820FAE
:10011000911D0895089580EA809300011092B9001E
:1001200080E28093B8000895FC0180E88083CF01CD
:100130000C948B00982F9370891305C0880F806AE8
:100140008093000108958FEF0895FA0194EA24E85E
:100150009093BC008091BC0087FFFCCF8091000190
:100160008093BB002093BC008091BC0087FFFCCF34
:100170008091B900883161F784EA8093BC00809156
:10018000BC0087FFFCCF809100018093BB0084E816
:100190008093BC008091BC0087FFFCCF7093BB00B4
:1001A00084E88093BC008091BC0087FFFCCF609303
:1001B000BB0084E88093BC008091BC0087FFFCCF2B
:1001C0008091BC0087FFFCCF84EA8093BC008091C3
:1001D000BC0087FFFCCF809100018F5F8093BB0044
:1001E00084E88093BC008091BC0087FFFCCF84E84A
:1001F0008093BC008091BC0087FFFCCF8091BB0046
:10020000808384E98093BC0080E0089594EA34E818
:100210009093BC008091BC0087FFFCCF80910001CF
:100220008093BB003093BC008091BC0087FFFCCF63
:100230008091B900883161F784EA8093BC00809195
:10024000BC0087FFFCCF809100018093BB0084E855
:100250008093BC008091BC0087FFFCCF7093BB00F3
:1002600084E88093BC008091BC0087FFFCCF609342
:10027000BB0084E88093BC008091BC0087FFFCCF6A
:1002800084EA8093BC008091BC0087FFFCCF809102
:1002900000018F5F8093BB0084E88093BC00809155
:1002A000BC0087FFFCCF84EC222381F0213009F4CD
:1002B00084E88093BC009091BC0097FFFCCFFA01CA
:1002C0009091BB0091932150AF01EECF84E98093D0
:1002D000BC0080E0089594EA24E89093BC008091EB
:1002E000BC0087FFFCCF809100018093BB0020936E
:1002F000BC008091BC0087FFFCCF8091B9008831A1
:1003000061F784EA8093BC008091BC0087FFFCCF3A
:10031000809100018093BB0084E88093BC008091B1
:10032000BC0087FFFCCF7093BB0084E88093BC00C7
:100330008091BC0087FFFCCF6093BB0084E8809372
:10034000BC008091BC0087FFFCCF4093BB0084E8D9
:100350008093BC008091BC0087FFFCCF84E9809330
:10036000BC0080E00895FB01260F372F311DDC0112
:100370008C918150990B862B9F2B2817390718F0E9
:100380009C012F5F3F4F822F8E1B24EA34E820937D
:10039000BC009091BC0097FFFCCF9091000190931E
:1003A000BB003093BC009091BC0097FFFCCF9091B4
:1003B000B900983161F794EA9093BC009091BC0029
:1003C00097FFFCCF909100019093BB0094E890932D
:1003D000BC009091BC0097FFFCCFF093BB0094E869
:1003E0009093BC009091BC0097FFFCCFE093BB00C2
:1003F00094E89093BC009091BC0097FFFCCF982F9D
:1004000024E8992369F0FA0131913093BB002093DD
:10041000BC003091BC0037FFFCCF9150AF01F1CF51
:1004200094E99093BC000895DF92EF92FF920F93AE
:100430001F93CF93DF93D82ED92F7B018A01C22F30
:100440002C2FA801B7018D2D9D2F0E94B301282FBD
:1004500030E0E20EF31EC81B020F131FC111F0CFD4
:1004600080E0DF91CF911F910F91FF90EF90DF908F
:100470000895FC01808181110FC088E290E00E9404
:100480006308FFEF21EE84E0F15020408040E1F767
:1004900000C000000C949608813071F46AE070E0AE
:1004A0008DE290E00E949B089FEFE1EEF4E0915016
:1004B000E040F040E1F7ECCF823061F76DE270E0B0
:1004C0008AE090E00E949B082FEF81EE94E021509B
:1004D00080409040E1F7DCCFCF93DF930F92CDB710
:1004E000DEB78CE390E00E9463082FEF82E597E08F
:1004F000215080409040E1F700C000000E94960823
:100500002FEF84E39CE0215080409040E1F700C051
:100510000000CE0101960E949107982F81E0933050
:1005200009F080E00F90DF91CF910895CF93DF9392
:10053000EC018C85811124C08B81803FB9F460E58A
:1005400070E08AE090E00E949B0882E088838C85BE
:100550008F5F8C872FEF82E597E02150804090409D
:10056000E1F700C00000DF91CF9108958F3079F757
:100570006AE070E080E590E00E949B0881E0E6CFB1
:100580008981803F49F460E570E08AE090E00E9454
:100590009B0882E08883DECF8F30E1F66AE070E06E
:1005A00080E590E00E949B0881E0F4CF8F938FB7A5
:1005B0008F939F938FE59AEE0197F1F700C00000AB
:1005C00081E0809350019F918F918FBF8F911895FB
:1005D000CF92DF92EF92FF920F931F93CF938C01F4
:1005E0000E94D9070E94D60762E070E080E00E9476
:1005F000240882E0E82EF12CCC24C394D12CF801FD
:10060000828593858130910539F182309105B1F170
:100610000097C1F71092500180E80E94DE070E9407
:10062000C907C82F80915001882329F00E94D9075B
:10063000F801D386C286CC2311F340E864E082E05F
:100640000E94E00780E0CF911F910F91FF90EF9003
:10065000DF90CF900C94DE071092500180E40E944E
:10066000DE070E94C907C82F80915001882319F323
:100670000E94D907F801F386E286DDCF109250017F
:100680000E9413080E94C907C82F80915001882337
:1006900091F20E94D907F80113861286CCCF0F93EE
:1006A0001F93CF93DF930F92CDB7DEB78C01FC0180
:1006B000418193818085898370E060E091113CC025
:1006C000CE0101960E946B01CE0101960E948A0024
:1006D0008FE097E20197F1F700C00000F8018085F4
:1006E0008983438161E070E0CE0101960E946B0135
:1006F000CE0101960E948A008FE097E20197F1F700
:1007000000C00000F80180858983428162E070E0CA
:10071000CE0101960E946B01CE0101960E948A00D3
:100720008FE097E20197F1F700C000000F90DF9192
:10073000CF911F910F910895CE0101960E946B01F8
:10074000CE0101960E948A00EFE0F7E23197F1F7BF
:1007500000C00000F80180858983428161E070E07B
:10076000CE0101960E946B01CE0101960E948A0083
:100770008FE097E20197F1F700C00000F801808553
:1007800089834381C3CF0F931F93CF93DF930F923E
:10079000CDB7DEB78C01FC0180858983A8014F5F4E
:1007A0005F4F70E060E0CE0101960E94A500CE018F
:1007B00001960E948A00F80180858983A8014E5F16
:1007C0005F4F61E070E0CE0101960E94A500CE016E
:1007D00001960E948A00F80180858983A8014D5FF7
:1007E0005F4F62E070E0CE0101960E94A500CE014D
:1007F00001960E948A000F90DF91CF911F910F9177
:1008000008950F931F93CF93DF930F92CDB7DEB769
:10081000CE0101960E945D0066E0CE0101960E9425
:1008200066008C01CE0101960E946300C801969576
:100830008795969587950F90DF91CF911F910F9196
:100840000895FC0186810895FC0185810895CF9368
:10085000DF93EC018A859B85009769F0039781F40B
:1008600067E370E090E080E00E949B0882E088836C
:10087000DF91CF91089562E370E08AE090E0F4CFD9
:100880006DE270E0FACFCF93DF93EC018A859B8510
:10089000009769F0039781F470E060E087E390E0EF
:1008A0000E949B0881E08883DF91CF9108956AE0E0
:1008B00070E082E390E0F4CF6AE070E08DE290E0D7
:1008C000EFCFFC0182859385823091051CF497FF60
:1008D00004C00895029729F008958CE390E00C94E9
:1008E000630887E390E0FBCF0F931F93CF93DF93D1
:1008F0000F92CDB7DEB78C01CE0101960E94910711
:100900008330A1F058F4813089F1823099F1882345
:10091000A9F18EE190E00E9463081AC0843091F141
:100920008530B9F7C8010E94390212C0F8018285EA
:100930009385009799F481E085830E949608FFEFE4
:1009400024E38CE0F15020408040E1F700C000003B
:100950000F90DF91CF911F910F9108950197C1F7EB
:1009600085858823A9F381E08583F2CFC8010E94A1
:100970002704EECFC8010E944304EACFC8010E94B9
:100980006104E6CFF80182859385019709F7858593
:100990008823F1F2C8010E949602DACFCB010C94B1
:1009A0006308EF92FF920F931F93CF93DF938C0115
:1009B0007B01D0E0C0E0CE15DF0559F08FEC97E069
:1009C0000197F1F700C00000C8010E94740421964D
:1009D000F2CFDF91CF911F910F91FF90EF9008958B
:1009E0000F931F93CF93DF93EC010E940807CE0172
:1009F0000E940104082F10E0C8010E945D07C80191
:100A000045970997E8F562E370E0CE010E94D104B2
:100A1000CE010E9401048551990B099708F06DC021
:100A200062E370E0CE010E94D104CE010E94010475
:100A30008551990B099708F060C00E94960882E3DF
:100A400090E00E94DF062FEF89E698E12150804078
:100A50009040E1F700C000000E94FE06EC8181E0BA
:100A60008E0F8C83EC0FFD2FF11D80EF818368EBDF
:100A70007BE0CE01DF91CF911F910F910C94D104B7
:100A80000D5311090331110590F562E370E0CE01B9
:100A90000E94D104CE010E9401048D53990B43970B
:100AA00060F562E370E0CE010E94D104CE010E94A5
:100AB00001048D53990B439700F50E94960886E434
:100AC00090E00E94DF062FEF89E698E121508040F8
:100AD0009040E1F700C000000E94FE06EC8181E03A
:100AE0008E0F8C83EC0FFD2FF11D8FE0BFCFDF91B8
:100AF000CF911F910F910C94FE06DF91CF911F9122
:100B00000F910895CF93DF93EC011D821B861A8607
:100B10008CE390E00E9463082FEF89E698E1215072
:100B200080409040E1F700C000008D81811107C036
:100B3000CE010E94F004CE010E947404F6CFCE01D3
:100B40000E944F03DF91CF910C9496080E94960863
:100B50002FEF84E39CE0215080409040E1F700C0FB
:100B6000000008950F931F93CF93DF93EC01062F9E
:100B700083E090E09B878A8710E0349906C037991C
:100B800004C0CE010E944304F8CF1F5F101741F04C
:100B90003399F3CF3299F1CFCE010E942704F8CFD9
:100BA00082E090E09B878A87DF91CF911F910F9120
:100BB00008950E9496082FEF83ED90E32150804026
:100BC0009040E1F700C000008CE390E00E948008B4
:100BD0002FEF83ED90E3215080409040E1F700C07B
:100BE000000068E270E084E690E00E949B082FEF2E
:100BF0008BE49DE1215080409040E1F700C000006F
:100C00000E9496082FEF87E893E1215080409040A2
:100C1000E1F700C0000088E290E00E9463082FEF37
:100C200087E893E1215080409040E1F700C0000048
:100C30000E94960882E390E00E94DF062FEF8DE38A
:100C400099E4215080409040E1F700C000000C94EE
:100C5000FE06CF93DF93EC011D8282E090E09B873C
:100C60008A8787E390E00E9463082FEF84E39CE08B
:100C7000215080409040E1F700C0000060E777E13C
:100C8000CE010E94D104CE010E9443042FEF83ECD9
:100C900099E0215080409040E1F700C0000066E0FC
:100CA000CE010E94B20560E777E1CE010E94D10437
:100CB00086B18C7B21F0CE010E947404F9CFCE0165
:100CC0000E94D90581E08E83DF91CF9108951F9313
:100CD000CF93DF93EC011D8680E40E94DE0781E064
:100CE00090E09B878A87CE010E94C303CE010E94B9
:100CF00061042FEF89E698E1215080409040E1F7B0
:100D000000C0000068E273E2CE010E94D10411E04D
:100D10001D8780E80E94DE0760E777E1CE010E9430
:100D2000D1041D8680E40E94DE0760E777E1CE01F2
:100D30000E94D1041D8780E80E94DE0760ED77E005
:100D4000CE010E94D1041D8680E40E94DE0760E28D
:100D50007EE4CE010E94D1041D8780E80E94DE0758
:100D60001D82CE010E9474048D818823D1F3CE01AF
:100D7000DF91CF911F910C942906FC0122853385C8
:100D80002130310539F02230310531F0232B31F497
:100D90000C9482050C9467060C9429060895CF9351
:100DA000DF93EC018E81811107C0CE010E94E80221
:100DB000CE010E94BD06F6CFDF91CF910895E82FB6
:100DC0008AB180638AB9A1E8B0E08C918A608C9383
:100DD000A0E8B0E08C9180648C93ED52FF0BEE0F95
:100DE000FF1FEF5FFE4F8081918190938900809378
:100DF000880010928500109284000895E0E8F0E0E9
:100E000080818F73808310928900109288000895EA
:100E10001092C5008FEC8093C40088E18093C100DC
:100E20008EE08093C20008959091C00095FFFCCFA2
:100E30008093C60008950F931F93CF938C01C0E059
:100E4000F801EC0FF11D8081882321F00E94140726
:100E5000CF5FF6CF8AE0CF911F910F910C941407CA
:100E60000F931F93CF93DF93CDB7DEB72A970FB6BB
:100E7000F894DEBF0FBECDBF1F928F938BE491E03D
:100E80009F938F938E010F5F1F4F1F930F930E94AD
:100E90002509C8010E941B070F900F900F900F901B
:100EA0000F900F902A960FB6F894DEBF0FBECDBFFD
:100EB000DF91CF911F910F9108950F931F93CF93BF
:100EC000DF93CDB7DEB72A970FB6F894DEBF0FBE1B
:100ED000CDBF9F938F938BE491E09F938F938E016F
:100EE0000F5F1F4F1F930F930E942509C8010E9497
:100EF0001B070F900F900F900F900F900F902A9656
:100F00000FB6F894DEBF0FBECDBFDF91CF911F911A
:100F10000F9108958091C00087FFFCCF8091C6009B
:100F2000089586B18C7B843251F088F48C3039F08E
:100F300040F4882351F1843011F08830A1F481E02D
:100F40000895803101F1803271F480E0089588398C
:100F500091F098F48038B9F040F48033A1F08433F4
:100F600051F08C3261F386E008958C3821F080399D
:100F700051F08838C1F784E008958C3B41F08C39FA
:100F8000D1F3803B81F782E0089585E0089583E006
:100F90000895009B09C08FE59AEE0197F1F700C014
:100FA000000080B18170089580E0089581B111B88A
:100FB00008958AB18FEF8AB9529808958BB9089530
:100FC000689FF001112470E0660F771F88EE93E0B0
:100FD0000E94FD08862F64E60E94F10820E02E178B
:100FE0001F0604F54BB990E0891759F03FEF50E721
:100FF00062E0315050406040E1F700C000009F5F68
:10100000F3CF1BB830E0931759F07FEF50E762E061
:10101000715050406040E1F700C000003F5FF3CFE7
:101020002F5FDDCF089580E88BB98FE19EE40197B3
:10103000F1F700C0000080E48BB98FE097E20197E0
:10104000F1F700C000000895982FF8948DB341E0A7
:1010500050E001C0440F9A95EAF7842B8DBB6230B3
:101060007105F9F044F46115710561F061307105A5
:1010700079F07894089563307105D9F7809169000B
:10108000836003C0809169008C7F80936900F1CFF9
:1010900080916900816080936900809169008D7FF3
:1010A000F4CF809169008E7F809369008091690000
:1010B0008260EBCF81EA84BD82E085BD089584B172
:1010C000886784B90895CF93C82F0E945A082FEFDC
:1010D000C29FC001112424E630E0B9010E94FD083E
:1010E00067BD43E151E0C49FC001C59F900D11242D
:1010F000B9010E94FD0868BD2D982E98CF910895E2
:10110000CF93C82F0E945A082FEFC29FC00111240D
:1011100064E670E00E94FD0867BD68BD85B18F6D13
:1011200085B985B18F6B85B9CF9108950E945A0812
:1011300017BC18BC0895CF93DF93C82FD62F0E94F9
:101140005A082D982E984FEFD49FC001112424E601
:1011500030E0B9010E94FD0867BDC49FC0011124A1
:10116000B9010E94FD0868BDDF91CF910895CDB708
:10117000DEB72E970FB6F894DEBF0FBECDBF198233
:101180001A821B821C821D821E821F82CE0109963A
:101190000E949400CE010A960E945D001C861B8668
:1011A0001D861E8681B111B884B18FEF84B987B1D5
:1011B00017B88AB1836F8AB9CE0101960E94CF0613
:1011C000CE010A960E946300CE0109960E948A0011
:1011D00090E080E02E960FB6F894DEBF0FBECDBF34
:1011E0000895991B79E004C0991F961708F0961B83
:1011F000881F7A95C9F78095089597FB072E16F4F6
:10120000009407D077FD09D00E94110907FC05D092
:101210003EF4909581959F4F0895709561957F4F0D
:101220000895AA1BBB1B51E107C0AA1FBB1FA6172D
:10123000B70710F0A61BB70B881F991F5A95A9F77F
:1012400080959095BC01CD010895AEE0B0E0EBE251
:10125000F9E00C94D20B0D891E8986E08C831A83E9
:1012600009838FEF9FE79E838D83AE01475E5F4FBB
:101270006F89788DCE0101960E9448092F813885AB
:10128000020F131FF80110822E96E4E00C94EE0B6F
:10129000AFE0B0E0EEE4F9E00C94C40B7C013B015C
:1012A0008A01DC0117961C921E92169713968C9158
:1012B00081FFC3C19AE0292EFE0131964F01D7016B
:1012C00013969C91F30193FD859193FF81913F01CA
:1012D000882309F448C1853239F493FD859193FF41
:1012E00081913F01853229F4B70190E00E94360BCD
:1012F000E6CFB12C412C512CBFE1B51538F08B3223
:1013000009F188F4803201F1833221F157FC3AC0AF
:1013100020ED280F2A3040F556FE1FC0B29C200D4C
:101320001124B22E06C08D3291F0803379F7689483
:1013300050F8F30193FD859193FF81913F01811155
:10134000DBCF20C0689451F8689452F8F2CF6894CB
:1013500053F8EFCF689454F8ECCF429C200D112441
:10136000422E689455F8E5CF8E3229F456FCFBC026
:10137000689456F8DECF8C3619F4689457F8D9CFB4
:101380008836B9F2982F9F7D95549330C0F08336FC
:10139000A1F18337C1F1833509F05BC0D801CD904D
:1013A000DD908D016B2D70E056FC02C06FEF7FEF7A
:1013B000C6010E94200B5C01689457F80AC00C5FBC
:1013C0001F4FEFE3E983AA24A394B12C6401E894AE
:1013D00057F853FC04C04A141B0409F018F5342CC8
:1013E000A114B10431F5332009F469CFB70180E2CB
:1013F00090E00E94360B3A94F6CFD8018C91898305
:101400000E5F1F4FE0CFF801C190D1908F016B2D7F
:1014100070E056FC02C06FEF7FEFC6010E942B0BFD
:101420005C01D5CFB70180E290E00E94360B4A9470
:10143000D2CFF60157FC859157FE81916F01B7011C
:1014400090E00E94360B31103A94B1E0AB1AB1082B
:10145000C7CF843619F0893609F074C0F80157FEF9
:101460006AC061917191819191918F01E52DEF7623
:10147000DE2E97FF09C090958095709561957F4FFE
:101480008F4F9F4F6894D7F82AE030E0A4010E9464
:10149000660BC82EC818AC2C5D2CD6FE0CC0E89488
:1014A00050F8CB1440F4D4FE05C0D2FC03C05D2D2F
:1014B0005E7E552EAB2C54FE98C0FE01EC0DF11D46
:1014C0008081803309F08AC0652D697E562E752D86
:1014D0007870372E53FC98C050FE92C0BC2CA414D8
:1014E00018F44C0CB42CBA1854FE94C0B70180E325
:1014F00090E00E94360B52FE09C088E790E051FE52
:1015000002C088E590E0B7010E94360BCB1408F4C6
:101510008DC0CA94D12C8FEFC81AD80AC80CD91C18
:10152000D6018E916D01B70190E00E94360B8C14AC
:101530009D04B1F758CF61917191072E000C880B73
:10154000990B93CFD52CE894D4F82AE030E0853776
:1015500039F1F52DF97FDF2E8037A9F058F4883561
:10156000A9F08F36D9F0F701868197812F96E2E1B5
:101570000C94E00B8837B9F7D4FE02C06894D2F817
:1015800020E130E00DC06894D4F8F6CF54FE03C0DB
:101590002F2F2660D22E20E132E002C028E030E07A
:1015A000F801D7FE15C041915191619171914C871D
:1015B0005D876E877F878F01A4016C857D858E8511
:1015C0009F850E94660BC82EC818E894D7F863CF91
:1015D00081919191AC0170E060E0E9CF52FC02C0D2
:1015E000A39475CFA394A39472CF852D867809F424
:1015F0006ECFF6CFB70180E290E00E94360BA39445
:10160000A414C0F3312C70CF342C3A18A41408F46D
:101610006BCFF8CF852D867809F478CF8BE251FE19
:1016200080E257FC8DE2B70190E06ECFB70180E316
:1016300090E00E94360BBA9469CF8FEF9FEF96CF60
:10164000FC010590615070400110D8F7809590958D
:101650008E0F9F1F0895FC01615070400190011092
:10166000D8F7809590958E0F9F1F08950F931F9325
:10167000CF93DF93182F092FEB018B8181FD09C0D8
:101680001FEF0FEF812F902FDF91CF911F910F91BF
:10169000089582FF14C02E813F818C819D8128177F
:1016A00039073CF4E881F981CF0101969983888359
:1016B00010838E819F8101969F838E83E3CFE8857F
:1016C000F985812F0995892BA1F3DACFFA01AA2791
:1016D000283051F1203181F1E8946F936E7F6E5F75
:1016E0007F4F8F4F9F4FAF4FB1E03ED0B4E03CD023
:1016F000670F781F891F9A1FA11D680F791F8A1F06
:10170000911DA11D6A0F711D811D911DA11D20D06C
:1017100009F468943F912AE0269F11243019305D26
:101720003193DEF6CF010895462F4770405D419317
:10173000B3E00FD0C9F7F6CF462F4F70405D4A3364
:1017400018F0495D31FD4052419302D0A9F7EACF2C
:10175000B4E0A6959795879577956795BA95C9F75B
:1017600000976105710508959B01AC010A2E06944E
:101770005795479537952795BA95C9F7620F731F07
:10178000841F951FA01D08952F923F924F925F9244
:101790006F927F928F929F92AF92BF92CF92DF9281
:1017A000EF92FF920F931F93CF93DF93CDB7DEB7E6
:1017B000CA1BDB0B0FB6F894DEBF0FBECDBF09947A
:1017C0002A88398848885F846E847D848C849B84D1
:1017D000AA84B984C884DF80EE80FD800C811B81DF
:1017E000AA81B981CE0FD11D0FB6F894DEBF0FBE0E
:0A17F000CDBFED010895F894FFCF7E
:1017FA00A0C111C210D20FEE0E180E4D0D8E0CDACA
:10180A000B2F0B8F0AF7096809E1086108E90777C6
:10181A00070C07A7064706ED0598054705FC04B41B
:10182A000470043104F403BC03860353032403F64F
:10183A0002CC02A4027E025A0238022564200A005F
:00000001FF
